:020000040800F2
:10000000700C0020890100083F2000083F1D0008F7
:100010003D200008D1070008393200080000000028
:10002000000000000000000000000000D92A0008C5
:10003000F30A00080000000061280008552D0008A0
:10004000A3010008A3010008A3010008A301000800
:10005000A3010008A3010008A3010008A3010008F0
:10006000A3010008A3010008A3010008A3010008E0
:10007000A3010008A3010008A3010008A3010008D0
:10008000A3010008A3010008A3010008A3010008C0
:10009000A3010008A3010008A3010008A3010008B0
:1000A000A3010008ED2D0008A3010008A30100082A
:1000B000A3010008A3010008A3010008A301000890
:1000C000A3010008A3010008A3010008A301000880
:1000D000A3010008A3010008A3010008A301000870
:1000E000A3010008A3010008A301000800F002F822
:1000F00000F03AF80AA090E8000C82448344AAF188
:100100000107DA4501D100F02FF8AFF2090EBAE885
:100110000F0013F0010F18BFFB1A43F0010318473B
:10012000245C0000445C0000103A24BF78C878C109
:10013000FAD8520724BF30C830C144BF04680C60ED
:10014000704700000023002400250026103A28BF35
:1001500078C1FBD8520728BF30C148BF0B60704739
:100160001FB51FBD10B510BD00F0B0F81146FFF768
:10017000F7FF03F069F900F0CEF803B4FFF7F2FFE0
:1001800003BC00F0D1F80000094880470948004747
:10019000FEE7FEE7FEE7FEE7FEE7FEE7FEE7FEE737
:1001A000FEE7FEE704480549054A064B7047000094
:1001B000E92D0008ED00000870060020700C0020FA
:1001C0007008002070080020B2F120030AD5C2F1A7
:1001D000200320FA02F001FA03F321FA02F140EAC7
:1001E0000300704721FA03F04FF00001704710B58B
:1001F000203AC0F00B80B1E81850203AA0E818501F
:10020000B1E81850A0E81850BFF4F5AF5FEA027CDF
:1002100024BFB1E81850A0E8185044BF18C918C04E
:10022000BDE810405FEA827C24BF51F8043B40F8EF
:10023000043B08BF7047D20728BF31F8023B48BFD4
:1002400011F8012B28BF20F8023B48BF00F8012B12
:1002500070474FF0000200B5134694469646203989
:1002600022BFA0E80C50A0E80C50B1F12001BFF46F
:10027000F7AF090728BFA0E80C5048BF0CC05DF8D5
:1002800004EB890028BF40F8042B08BF704748BF23
:1002900020F8022B11F0804F18BF00F8012B704797
:1002A00070477047704710B500F008F8006810BD3F
:1002B00010B5044600F002F8046010BD0048704715
:1002C0001006002000487047100600207546FFF712
:1002D000F9FFAE4605006946534620F00700854603
:1002E00018B020B5FFF75EFFBDE820404FF00006D4
:1002F0004FF000074FF000084FF0000B21F007010E
:10030000AC46ACE8C009ACE8C009ACE8C009ACE850
:10031000C0098D46704710B50446AFF300802046F3
:10032000BDE81040FFF729BF01491820ABBEFEE72A
:10033000260002007047000070B50446006881681E
:10034000C943C90717D1816821F00101816001F01B
:1003500019F805460AE000BF01F014F8401B022816
:1003600004D920688068C043C00706D02068806830
:10037000C043C007F0D0002070BDA06A40F010005C
:10038000A062E06A40F00100E062012070BD000060
:1003900070B505460948408803F020FA044628460F
:1003A00003F01CFA214603F069FB054903F05EFAED
:1003B000BDE87040034903F0FBB8000004000020D2
:1003C0003333533A7CF2F03E10B50146406A826AFC
:1003D00012F0500F05D0006A026BBDE810400846CD
:1003E0001047816A41F40071816201688968C1F334
:1003F000424107290CD1017B51B9816A21F48071F6
:100400008162816AC90403D4816A41F00101816279
:1004100000F07AFC10BD10B5406A816A41F04001DD
:100420008162C16A41F00401C16200F06FFC10BD3D
:1004300010B5406A00F069FC10BD000038B51248E4
:10044000416941F0010141614069114C00F0010036
:1004500000900E48206000206060A0608020E06076
:1004600040002061800060612020A0614FF4405076
:10047000E061204600F062FD08B100F03BFB04485B
:1004800030380462606238BD00100240080002404B
:1004900018010020F8B5002604460096006881681F
:1004A000C943C9072DD0816841F001018160164818
:1004B00016490068B0FBF1F000E0401E00900028F3
:1004C000FBD100F05FFF054616E000BF00F05AFFC9
:1004D000401B022810D920688068C043C0070BD099
:1004E000A06A40F01000A062E06A40F00100E06203
:1004F00084F824600120F8BD20688068C043C007EC
:10050000E4D10020F8BD00009C00002040420F0014
:1005100001488068704700000400002001480088FE
:1005200070470000300000200148806970470000DB
:10053000040000200148C06870470000040000204B
:10054000014800697047000004000020014840880D
:100550007047000004000020F0B589B00024364840
:10056000009401940294816941F400718161816970
:1005700001F400710391416821F4404141F40041CC
:10058000416005940694816941F0040181618069AC
:10059000032500F004000790F020CDE9030503A92E
:1005A000264800F0F5FDFFF749FF264824490126BB
:1005B0000160891581600673047544604FF4602101
:1005C000C1610424046100F0A3FB08B100F092FAB9
:1005D000022706208DE8C10069461A4800F016FB84
:1005E00008B100F087FA0520CDE9000769461548F3
:1005F00000F00CFB08B100F07DFA0720CDE9000502
:100600006946104800F002FB08B100F073FA00944C
:1006100069460C48019400F0F9FA08B100F06AFA52
:1006200004220949074800F003FC002801D000F02B
:1006300061FA09B0F0BD000000100240000801405E
:1006400000240140E800002030000020084810B5D8
:100650000088FFF79DFE06492C398860C869401C58
:10066000C861C869002801D10120C86110BD00001F
:10067000300000202DE9F041474C608803F0AEF8CF
:10068000464D294603F0F2F8454903F0EFF80746D6
:10069000A08803F0A3F8294603F0E8F8414902F0E6
:1006A00087FF0646E08803F099F8294603F0DEF854
:1006B0002C3C05462078002862D0216A38468846BE
:1006C00003F0DCF96FF00207394603F07EFA414689
:1006D00002F0FAFE2062616A3046884603F0CEF9E5
:1006E000394603F072FA414602F0EEFE6062A16AFA
:1006F00028460E4603F0C2F9394603F066FA314641
:1007000002F0E2FEA062216AE160606A2061A06AF4
:100710006061A288521C92B2A280642A38D300225F
:100720004FF07E56204DA280B14233DD1F4A9042E9
:1007300030DD02F03DFF01461D481E4A084490424C
:1007400028D23546304602F033FF294603F096F9A9
:10075000194903F08BF8A84218DD184902F028FF68
:1007600002F0AAFD164902F023FF164902F0ACFE82
:100770000146284602F01CFF134903F07FF906E00A
:100780002762C4E9096501202070BCE70F48A06119
:10079000BDE8F081A561FBE7300000203333533A18
:1007A0000000304140137E3E0000C8C26F12033B80
:1007B00090EDFCC5CBCC7C050000884200401C4677
:1007C00000E076450FCF5B3B3393884300004843FE
:1007D000FEE70000084A10B500235370D3700748A5
:1007E00001F005FF0548283801F001FF1362BDE85C
:1007F000104001F04BBF00003800002084010020B1
:1008000010B502F0B1F80D4801F0F1FE0B482838A0
:1008100001F0EDFE0A480169084A283A9161283240
:100820000021916101220162C2704162C161818037
:100830004270BDE8104001F043BF00008401002079
:10084000380000200148C0687047000038000020D0
:10085000044B10B51C680460586808609868106004
:1008600010BD0000840100200148C06970470000ED
:100870003800002001480078704700003800002050
:10088000044B10B51C6804605868086098681060D4
:1008900010BD00005C010020014880687047000026
:1008A00038000020014840787047000038000020E0
:1008B0002DE9F047424C8946A169491CA161414993
:1008C0000988884201D3012100E00021A1703E493E
:1008D00009880026884215D3A0884FF6FF71884208
:1008E00001D2401CA08080B2032802D3012002F074
:1008F000F1F8607820B1A07830B1E069401CE06187
:10090000002056E0A680F4E7A769F80755D12F4DDF
:10091000E078C0B1D4E90910814201D2491C61627A
:1009200002F05CFF8046606A02F058FF414602F028
:100930003FFE4FF07E51884201DB0846E6702946B3
:1009400002F094FF05461420B7FBF0F100FB117094
:100950001F4F48B92069B86160697861FFF7F0FD01
:100960000146384601F048FE2078DFF8688001280B
:100970000BD0786A2062404500D326626169206A04
:1009800003F040F801D3206A01E060692062104959
:10099000283188610E484946283001F02DFE044672
:1009A000294603F02FF800D22C46444500D30024FA
:1009B0002046BDE8F04701F02DBFBDE8F0870000FC
:1009C0003800002066000020680000209A99593FF6
:1009D0005C010020000080800549884202DB890715
:1009E000884200DD08460349C86002F021B80000D3
:1009F000CDCCCC3D38000020014B83E80700704788
:100A000084010020012800D00020014908707047AF
:100A100038000020014B83E8070070475C0100208C
:100A2000054A0649904201DA104602E0884200DD9C
:100A300008460349886070470000A040000020413C
:100A4000380000202DE9F041FFF774FD8046FFF7E4
:100A500077FD0746FFF768FD064602F011F80146EC
:100A600010F1FF4F01D3002104E04FF07E5081428E
:100A700000DD0146104CE06802F0F8FE606161693B
:100A80000E48814200DA60610D49404602F0EEFEF8
:100A90000C490546884200DA0D462946A06802F056
:100AA000B1FE00D2A5682561236932463946404629
:100AB000BDE8F04101F0D6BE38000020CDCCCC3DE1
:100AC0009A99593F0000A04030B590F84050012459
:100AD000AC40C56B6C60046863604368102B0368AE
:100AE00003D099600068C26030BD9A600068C16040
:100AF00030BD704772B6FEE706490020C86106485F
:100B0000016941F004010161016941F040010161A5
:100B100070470000F001002000200240064A00213A
:100B2000D16106490A6942F002020A614861086916
:100B300040F0400008617047F001002000200240B2
:100B4000044B0022DA61044A136943F00103136184
:100B500001807047F001002000200240144800226C
:100B6000C168CB06134904D5CA6942F00202CA61C2
:100B70001022C3685B0705D5CB6943F00103CB6145
:100B800042F00402C369DB0707D0CB6943F00403DA
:100B9000CB61C16921F00101C161A2F58071013908
:100BA00001D0C2607047C16921F00101C161704785
:100BB00000200240F001002070B5054600F0E2FB85
:100BC0000646114C09E0681C07D025B100F0DAFB9D
:100BD000801BA84201D9032070BDE068C007F2D194
:100BE000E068800601D52020E060E068C00605D4FA
:100BF000E069C00702D1E068400703D5FFF7AEFF08
:100C0000012070BD002070BD00200240F8B5002416
:100C1000009490F824202546012A12D0012280F861
:100C200024204A681F23072A0DD20668776B521EBC
:100C300002EB820293409F430B6893401F4377630C
:100C400019E00220F8BD06680D2A0AD2376BD21FC0
:100C500002EB820293409F430B6893401F4337632C
:100C600009E0F76A0D3A02EB820293409F430B685A
:100C700093401F43F7620A68072306680A2A0AD3CB
:100C8000F7680A3A02EB420293409F438B68934015
:100C90001F43F76008E0376902EB420293409F432D
:100CA0008B6893401F4337610A68102A01D0112ACC
:100CB00020D1124B02689A4217D193681B0219D4B3
:100CC000936843F4000393600968102912D10C491A
:100CD0000C4A0968B1FBF2F101EB8101490000E027
:100CE000491E00910029FBD104E0816A41F02001F6
:100CF0008162012480F824502046F8BD0024014080
:100D00009C00002040420F00704770477047000071
:100D10002DE9F0414FF0000704003D467ED0A06A67
:100D2000002628B9E66284F82460204600F07EF8A8
:100D30002046FFF701FBA16AC90600D420B1A06AD2
:100D400040F01000A06269E0A16A21F4885141F0EE
:100D50000201A1626268E169237B0A4347EA430119
:100D60000A43A1684FF48077B94209D0012907D01E
:100D70005FF0000194F814C0BCF1010F02D00AE04A
:100D80003946F7E7F3B1A36A43F02003A362E36AAD
:100D900043F00103E3622368D3F804C02CF4694CE8
:100DA0004CEA010CC3F804C021688B68DFF870C0FE
:100DB00003EA0C0313438B60A168B9420BD00129ED
:100DC00009D00CE0DFF85CC0A3690CEB43330B43A4
:100DD00043F40061DFE7218A0D05A5F58015216840
:100DE000CB6A23F470032B43CB62216889680E4BD6
:100DF0001940914208D1E662A16A21F0020141F056
:100E00000101A162BDE8F081A06A20F0020040F07B
:100E10001000A062E06A40F00100E0620120F1E70A
:100E2000FDF7E1FF00E0FFFFFE0E1FFF704700002F
:100E30002DE9F047894604463B4900683B4F0E1DAB
:100E40009046884201D0B84207D1306810F4702F24
:100E500003D001252846BDE8F08794F82400012836
:100E60000CD0012084F824002046FFF713FB050076
:100E70004FF0000004D084F82400EBE70220EAE7FA
:100E8000A16A40F60162914341F48071A162216838
:100E9000B94218D1326812F4702F14D0A16A41F40B
:100EA0008011A1623168490505D5A16A21F400517C
:100EB00041F48051A162A16AC9040AD5E16A21F016
:100EC0000601E16206E0A26A22F48012A262496889
:100ED000E9E7E06284F82400216A15488862216A03
:100EE0001448C862216A1448086321686FF0020040
:100EF00008602068816841F4807181602168434600
:100F00004A464C31206A00F047F820688168C1F3F6
:100F100042410729816803D041F48011816099E73B
:100F200041F4A001FAE7000000240140002801403C
:100F3000C9030008310400081704000830B528B3BD
:100F400008C8134914221944B1FBF2F18900C163A6
:100F500010498163022141771A6843F6F0718A4390
:100F6000D0E900142143D0E902452C432143046910
:100F700021434469214384692143114319600021BD
:100F80004163012242770177084630BD012030BD20
:100F9000F8FFFDBF0000024070B5044690F8200045
:100FA000002501280CD0012084F8200094F821604D
:100FB0000020012E06D084F820000225284670BDAE
:100FC000022070BD022684F82160A06320680668B4
:100FD00026F0010606602046FFF776FDE06A00284D
:100FE0002068016802D041F00E0106E021F0040102
:100FF00001602068016841F00A0101602068016811
:1010000041F001010160D9E770B5044600F0BAF97A
:101010000546601C02D004480078044400F0B2F990
:10102000401BA042FAD370BD900000202DE9F0478C
:10103000054626480F460126017E01290FD00121D1
:10104000814601762868DFF888804CF25034022807
:1010500008D0A2462046FFF7AFFDA8B131E002203C
:10106000BDE8F0872046FFF7A7FD08BB0120FFF78A
:1010700043FD2046FFF7A0FDD8F81010064621F0EA
:101080000401C8F810101CE04FF0FF303860AC6865
:1010900011E02046FFF742FD5046FFF78DFDD8F8DE
:1010A0001010060021F00201C8F8101001D03C60B9
:1010B00007E004F58064D5E9020100EB8120A0423D
:1010C000E7D8002189F818103046C9E7F001002060
:1010D000002002400348016941F0800101610020C5
:1010E00070470000002002402DE9F05F07461C48D1
:1010F00088460024017E15461E46012909D001219B
:10110000814601764CF2503A5046FFF755FD18B132
:1011100022E00220BDE8F09F012F02D0022F00D074
:101120000427D346DFF83CA0220128463146FFF7CA
:101130004BF881B208EB4400FFF702FD5846FFF779
:101140003BFDDAF8102022F00102CAF8102018B98D
:10115000641CE4B2BC42E7D3002289F81820D9E726
:10116000F001002000200240064900200A69120612
:1011700007D5054A4A60054A4A600969090600D54B
:10118000012070470020024023016745AB89EFCD65
:101190002DE9F84FDFF8B8910024A9F1040B23469C
:1011A0000F2709F1040AABF1040EC9E00125A5409F
:1011B0002A40AA427DD1674ED1F804C0ACEB0608A4
:1011C000B44532D014DCBCF1030F3AD009DCBCF1D9
:1011D000000F2AD0BCF1010F1CD0BCF1020F31D19D
:1011E0001DE0BCF1110F17D0BCF1120F2AD119E08C
:1011F000B8F5881F19D006DCB8F5803F15D0B8F5D2
:10120000801F1FD111E0B8F5001F0ED0B8F5041FE4
:1012100018D10AE0CB6815E0CB681B1D12E0CB6843
:1012200008330FE0CB680C330CE08B682BB1012B3B
:101230004FF0080303D0456104E0042302E0056198
:1012400000E00023FF2A01D8064601E000F1040671
:101250004FEA840501D9A5F12005D6F8008007FAE8
:1012600005FC28EA0C0803FA05F548EA0508C6F863
:1012700000804D68ED0062D5374DAE6946F001063D
:10128000AE61AD6924F0030605F001050095334D0C
:1012900006EB050CDCF80850A607360F07FA06F82F
:1012A00025EA0805DFF8B880404503D14FF0000873
:1012B00017E044E0DFF8AC80404502D14FF0010870
:1012C0000FE0DFF8A480404502D14FF0020808E0AB
:1012D000DFF89880404502D14FF0030801E04FF05D
:1012E000040808FA06F848EA0508CCF808804D68B2
:1012F000D9F80060ED024D4601D5164300E0964353
:101300002E604D68DAF80060AD02554601D51643EF
:1013100000E096432E604D68DBF80060AD035D464B
:1013200001D5164300E096432E604D68DEF800605C
:10133000ED03754601D5164300E096432E60641C0C
:101340000D682A46E5407FF431AFBDE8F88F000014
:10135000080401400000111000100240000001408C
:1013600000080140000C0140001001400014014041
:101370008068084000D0012070470AB101617047C1
:101380000904FBE7014880687047000090000020D6
:101390000248816802781144816070479000002003
:1013A000074810B5016841F010010160032000F00A
:1013B00057F80F2000F006F800F024F8002010BDC8
:1013C0000020024070B50D4D04464FF47A71287824
:1013D000B1FBF0F00A490968B1FBF0F000F02AFB1C
:1013E00048B9102C07D200222146501E00F018F8F0
:1013F00000206C6070BD012070BD000090000020D6
:101400009C0000207047002809DB00F01F0201212A
:1014100091404009800000F1E020C0F800117047C1
:10142000F0B40E4B1B680C46C3F30223C3F107054F
:10143000042D00D90425191D072901D2002300E03D
:10144000DB1E012606FA05F1491E214099409E4007
:10145000761E16403143F0BC01F0EFBE0CED00E00B
:10146000064900F0070208684FF6FF03184040EAFB
:101470000220034A10430860704700000CED00E0B2
:101480000000FA052DE9F84305460078354CC00701
:1014900054D0E0690026C00008D4E06940F08050D4
:1014A000E061E069012600F0805000902E4801685C
:1014B000C90512D40168804641F480710160FFF7CC
:1014C00061FF074605E000BFFFF75CFFC01B642813
:1014D00023D8D8F80000C005F6D5206A10F4407073
:1014E00021D0A98801F4407181421CD0206A1F4993
:1014F000012220F440700A6000220A602062C007C6
:1015000011D0FFF73FFF074641F2883808E000BFDF
:10151000FFF738FFC11B414502D90320BDE8F8831E
:10152000206A8007F4D5206A696820F44070084377
:1015300020621EB1E06920F08050E06128788007C9
:1015400005D56068A96820F44040084360602878A9
:10155000C00605D56068E96820F480000843606033
:101560000020DBE7001002400070004040044242CF
:101570002DE9F0470F46050061D0434E306800F07A
:101580000700B84209D2306820F0070038433060C5
:10159000306800F00700B84251D128683B4C810701
:1015A00012D5400703D5606840F4E0606060287899
:1015B000000703D5606840F4605060606068A96807
:1015C00020F0F000084360602878C00728D06868E1
:1015D000012810D02168022810D0890700292EDAAE
:1015E000616821F0030101436160FFF7CBFE804693
:1015F00041F288390DE021688903EFE78901EDE7C1
:10160000FFF7C0FEA0EB0801494502D90320BDE861
:10161000F0876068696800F00C00B0EB810FEFD1D3
:10162000306800F00700B8420BD9306820F007009E
:1016300038433060306800F00700B84201D0012024
:10164000E5E72878400705D56068E96820F4E060A0
:10165000084360602878000706D56068296920F48F
:10166000605040EAC100606000F02EF86168084AEE
:10167000C1F30311515CC840064908600648006880
:10168000FFF7A0FE0020C2E7002002400010024049
:101690007A3C00089C00002094000020014800686B
:1016A000704700009C000020044805490068496814
:1016B000044AC1F3C221515CC84070479C0000201D
:1016C000001002408A3C00080E4A51680E4801F0A2
:1016D0000C03042B11D0082B0FD10C48C1F383430A
:1016E000C903C05C0AD55168084AC1F34041921E43
:1016F000515C054A5043B0FBF1F070470449484340
:10170000704700000010024000127A006A3C000896
:1017100000093D002DE9F84F040070D02078C04D3D
:10172000C00749D06868C0F38100012807D0686805
:10173000C0F38100022809D16868C00306D5286873
:10174000800339D560680028E7D035E06068B0F5DF
:10175000803F0BD010B1B0F5A02F11D0286820F435
:1017600080302860286820F4802002E0286840F457
:1017700080302860606890B1FFF704FE06460AE0FA
:10178000286840F480202860F0E700BFFFF7FAFDEA
:10179000801B642873D828688003F7D50CE0FFF716
:1017A000F1FD064605E000BFFFF7ECFD801B642855
:1017B000F0D828688003F7D420789A4E80074FF03D
:1017C00001094FF0000839D5686810F00C0F07D0F8
:1017D0006868C0F38100022809D16868C00306D494
:1017E0002868800714D52069012808D110E02069F5
:1017F000B0B1C6F80090FFF7C5FD074605E00AE165
:10180000FFF7C0FDC01B0228C4D828688007F7D5A1
:101810002868616920F0F80040EAC10028600DE006
:10182000C6F80080FFF7AEFD074604E0FFF7AAFD0B
:10183000C01B022823D828688007F7D42078000727
:101840002CD57948A169D9B1C0F80090FFF79AFD6D
:10185000074604E0FFF796FDC01B02280FD8686A10
:101860008007F7D571484FF4FA510068B0FBF1F0EA
:10187000009000BF0098411E0091FAD20EE080E077
:10188000C0F80080FFF77EFD074604E0FFF77AFD11
:10189000C01B022875D8686A8007F7D420784007F3
:1018A00060D5E8690027C00008D4E86940F080509E
:1018B000E861E869012700F0805000905C48016809
:1018C000C90513D40168834641F480710160FFF7B4
:1018D00059FD824606E000BFFFF754FDA0EB0A0069
:1018E00064284ED8DBF80000C005F5D5E068012873
:1018F0000AD008B1052813D0286A20F00100286218
:10190000286A20F0040002E0286A40F00100286202
:10191000E06841F2883B98B1FFF734FD82460BE066
:10192000286A40F004002862EEE700BFFFF72AFDB6
:10193000A0EB0A0159455AD8286A8007F6D50CE071
:10194000FFF720FD824605E0FFF71CFDA0EB0A0132
:1019500059454CD8286A8007F6D41FB1E86920F0B1
:101960008050E861E06988B36968C1F381010229A8
:1019700044D00228C6F8608004D0FFF703FD044677
:1019800038E034E0FFF7FEFC074604E0FFF7FAFC1E
:10199000C01B02282BD828688001F7D4206AB0F534
:1019A000803F05D16868A16820F400300843686072
:1019B000D4E908010843696821F474110843686098
:1019C000C6F86090FFF7DEFC044606E025E000BFA5
:1019D000FFF7D8FC001B022809D828688001F7D53A
:1019E0001BE000BFFFF7CEFC001B022802D903203A
:1019F000BDE8F88F28688001F4D40EE00128F7D004
:101A00006868226A00F48031914204D1616A00F46E
:101A10007010884201D00120EAE70020E8E70000CA
:101A20000010024000004242800442429C0000201C
:101A30000070004010B5401EB0F1807F01D301203E
:101A400010BD4FF0E02460610F21601701F0F5FB3D
:101A50000020A06107202061002010BD7047704762
:101A600010B590F83C20012A22D0012280F83C20B9
:101A7000CA688C6822F4407222434C6822F4806267
:101A800022430C6822F4006222430C6922F4805243
:101A900022434C6922F400522243C969002322F4F4
:101AA00080420A4301684A6480F83C30002010BD3F
:101AB000022010BD70472DE9F04104460068C66859
:101AC00005694FF00007A90713D5B10711D5F91E15
:101AD000016101202077206880698007204602D0BC
:101AE000FFF7E8FF04E000F07EF8204600F010F970
:101AF0002777680716D5700714D521686FF00400A2
:101B00000861022020772068806910F4407F204619
:101B100002D0FFF7CFFF04E000F065F8204600F0A8
:101B2000F7F82777280715D5300713D521686FF008
:101B300008000861042020772068C06980072046DB
:101B400002D0FFF7B7FF04E000F04DF8204600F0A8
:101B5000DFF82777E80616D5F00614D521686FF070
:101B600010000861082020772068C06910F4407FC9
:101B7000204602D0FFF79EFF04E000F034F8204634
:101B800000F0C6F82777E80708D0F00706D02168EC
:101B90006FF001000861204600F0BCF8280608D567
:101BA000300606D521686FF0800008612046FFF7F7
:101BB00055FF680608D5700606D521686FF040000D
:101BC0000861204600F0BAF8A8060AD5B00608D584
:101BD00021686FF0200008612046BDE8F041FFF762
:101BE0003EBFBDE8F081704770B5044690F83C00F8
:101BF00000260D4601280FD0012084F83C006AB170
:101C0000042A1DD0082A2FD00C2A3FD001260020FC
:101C100084F83C00304670BD022070BD206801F0A1
:101C200027F92068816941F0080181612068816994
:101C300021F004018161206881692A69114311E062
:101C4000206801F03DF92068816941F400618161FB
:101C50002068816921F480618161206881692A6935
:101C600041EA02218161D2E7206801F055F920683C
:101C7000C16941F00801C1612068C16921F0040116
:101C8000C1612068C1692A69114311E0206801F02F
:101C90006FF92068C16941F40061C1612068C169C0
:101CA00021F48061C1612068C1692A6941EA022189
:101CB000C161ACE710B5040003D094F83D0010B149
:101CC00007E0012010BD002084F83C00204600F011
:101CD0001EF8022084F83D00211D206801F08CF8D8
:101CE000012084F8460084F83E0084F83F0084F820
:101CF000400084F8410084F8420084F8430084F8EE
:101D0000440084F8450084F83D00002010BD704771
:101D10007047000010B50068074988420BD1FEF7F4
:101D200095FCFEF7F5FB0446FEF7F8FB2146BDE8FF
:101D30001040FEF7BDBD10BD002C01407047FEE70E
:101D400010B50E4C012280212046FFF716FB012220
:101D500040212046FFF711FB00F046F800228021C9
:101D60002046FFF70AFB00F03FF800224021204602
:101D7000FFF703FBBDE8104000F036B8000C01404F
:101D800010B50A4C002280212046FFF7F6FA012206
:101D900040212046FFF7F1FA00F026F82046012204
:101DA000BDE810408021FFF7E8BA0000000C0140B8
:101DB00010B50C4C012280212046FFF7DEFA00F01E
:101DC00013F8012240212046FFF7D7FA00F00CF863
:101DD000002240212046FFF7D0FABDE8104000F075
:101DE00003B80000000C01400320401EC0B2FCD22A
:101DF00070470000F0B585B00025134800950195A7
:101E00000395816941F00401816180690F4E00F002
:101E10000400049001200E4F2C46029006EBC400F3
:101E200069468088009056F83400FFF7B1F907EB57
:101E30000410641C057005734560E4B28560042CD1
:101E4000ECD305B0F0BD000000100240483C000893
:101E5000AC0100202DE9F047FFF794FA304906461F
:101E60000A68801A052859D300252E4FDFF8B8805C
:101E70004FF0010AA9460E6007EBC50457F835007C
:101E8000A188FFF775FAA17921B10021814203D120
:101E9000012002E00121F9E7002008EB0514217878
:101EA00021B1012907D0022910D112E090B3666058
:101EB00084F800A02EE048B16068301A142829D3B5
:101EC0000220207084F80C90A66023E084F8009033
:101ED00020E010B1207B30B113E084F80090207B2B
:101EE000C0B9002113E06068301AB0F5487F11D303
:101EF00084F80CA001212846A66000F017F8207B8A
:101F000040B1A068301A962804D30221A660284662
:101F100000F00CF86D1CEDB2042DADD3BDE8F087D8
:101F20007C000020483C0008AC01002070B5354E14
:101F30008EB00C464FF07C55A8B101281DD0022868
:101F400029D0032857D1012C38D0002953D100F0D3
:101F5000CBFE002851D0022851D02BA00EB0BDE8F6
:101F6000704001F027B8FEF797FC012C03D03146F2
:101F700001F0AAFA08E02946FAE7FEF78DFC012CE9
:101F800007D0314601F07AFD0EB0BDE87040FEF793
:101F900047BD2946F6E7012C08D000292BD1FEF7D2
:101FA00081FC38B1FEF716FC1AA0D7E700F0DCFC84
:101FB00019A0D3E7FEF724FC18A0CFE7684600F08D
:101FC000B1FD0298FEF72CFD0398FEF705FD04987D
:101FD00000F040FD9DF81400FEF714FD06AB93E8F9
:101FE0000700FEF717FD09AB93E80700FEF704FDB5
:101FF0000BA000F0DFFF0EB070BD0BA0AEE70CA091
:10200000ACE70000CDCCCC3D534156452045525263
:10201000000000004F464600434C52004F4E000067
:10202000464143544F525900534156454400000025
:1020300053544F502031535400000000FEE7FEE798
:1020400030B40021084B0A465FF0000003EBC004E7
:10205000401CC0B262548028F8D3491CC9B2082978
:10206000F2D330BC00F0DEB81002002030B10128FD
:1020700007D100215FF0A70000F054BA0021A6208C
:10208000FAE7704710B558B1012810D10021C020DF
:1020900000F048FA0021A020BDE8104000F042BA4C
:1020A0000021C82000F03EFA0021A120F4E710BD75
:1020B00030B5CC0801F0070301259D40EBB2064D79
:1020C00005EBC005C808285C0AB1184302E063EAC2
:1020D0000000C043285530BD1002002030B54B48E9
:1020E00085B0816941F0080181618169002401F0B6
:1020F0000801009401940294CDE90341816941F003
:10210000080181618069424D00F008000490224678
:10211000C0212846FFF731F9C02000901120CDE9F9
:1021200001040320039069462846FFF731F8C820D0
:10213000FEF76AFF0021AE2000F0F4F90021084606
:1021400000F0F0F90021102000F0ECF9002140200F
:1021500000F0E8F90021812000F0E4F90021CF200F
:1021600000F0E0F90021A12000F0DCF90021C820F6
:1021700000F0D8F90021A62000F0D4F90021A82011
:1021800000F0D0F900213F2000F0CCF90021D3204D
:1021900000F0C8F90021084600F0C4F90021D5205C
:1021A00000F0C0F90021802000F0BCF90021D92006
:1021B00000F0B8F90021F12000F0B4F90021DA2094
:1021C00000F0B0F90021122000F0ACF90021DB2072
:1021D00000F0A8F90021302000F0A4F9002120200F
:1021E00000F0A0F90021022000F09CF900218D20D0
:1021F00000F098F90021142000F094F9FFF720FF77
:102200000021AF2000F08EF905B030BD0010024073
:10221000000C01400246012000E05043491EC9B2B3
:10222000FBD2704770B5184E002400BF04F1B00017
:10223000C0B2002100F076F90021084600F072F9E2
:102240000021102000F06EF9FFF77AFD782000F0F1
:1022500045FCFFF7ADFD402000F040FCFFF7A8FD76
:102260005FF0000506EBC500005D00F037FCFFF7EE
:102270009FFD6D1CEDB2802DF4D3FFF781FD641C32
:10228000E4B2082CD2D370BD100200202DE9FC4F1F
:102290001C460E4682468B460190082B0DD06007E7
:1022A00000D0012000EBD40061084843C0B2814651
:1022B000203AD0B2009000204BE00620F7E7082C2F
:1022C00013D00C2C18D0102C1BD0182C44D10098F3
:1022D000234900EBC00000BF01EB8001002711F88B
:1022E0000850E80712D00B9A13E000981D4900EB44
:1022F000400001EB4001F1E700981B4900EB400072
:10230000EAE71A49009801EB0011E7E70B9828B3B8
:10231000002231465046FFF7CBFE761C7F1C6D082D
:10232000FFB2F6B2082FDCD30AF1010000F0FF0A79
:10233000082C0AD00199AAEB0100B0EB540F04D18C
:102340000BF108008A4600F0FF0B08F101005E4621
:10235000C0B280464845B2D3BDE8FC8F0122D8E721
:102360001E490008923C0008BA3E00082E430008AF
:102370002DE9F84F0025DDE90A691F4692468B4694
:102380008046082E00D1022500241CE0381B401E88
:10239000C1B20A20FFF73EFFBAFBF0F00A21B0FB02
:1023A000F1F201FB1200CDF8009080B13030C2B2E2
:1023B00005EB560101FB0480C0B233465946FFF7D6
:1023C00065FF641CE4B2BC42E0D3BDE8F88F05EBC6
:1023D000560101FB0480C0B233463022EEE72DE9FE
:1023E000F8411E46154688460446079F0BE03346D3
:1023F000414620460097FFF749FF082E0AD004EB1C
:102400005600C4B26D1C2A78A2F120005E28EED9D5
:10241000BDE8F881A41DE4B2F4E700002DE9FF4F08
:1024200081B006461D464FF0000ADDF83890DDF811
:102430004080039801F07EF983460F9800244708F6
:102440002AE0281B401EC1B20A20FFF7E3FEBBFBB7
:10245000F0F10A20B1FBF0F200FB1210BAF1000F0C
:1024600005D1691E8C4202DA50B14FF0010A3030BA
:10247000C2B207FB0460CDF80080C0B20F9B06E03B
:1024800007FB0460CDF800800F9BC0B220220299A8
:10249000FFF7FCFE641CE4B2AC42D2D307FB05603C
:1024A000CDF80080C0B22E220F9B0299FFF7EEFEFE
:1024B00049460A20FFF7AEFE01F090F9044658465F
:1024C00001F074F9039901F0CEFA214601F0CEF93A
:1024D00001F030F9824600241FE000BFA9EB0400A0
:1024E000401EC1B20A20FFF795FEBAFBF0F10A20A8
:1024F000B1FBF0F200FB12106219711D07FB021113
:1025000001F0FF0C3030C2B2CDF8008060460F9B66
:102510000299FFF7BBFE641CE4B24C45DED305B064
:10252000BDE8F08F70B50C460546FFF709FC782032
:1025300000F0D4FAFFF73CFC0CB1402000E0002092
:1025400000F0CCFAFFF734FC284600F0C7FAFFF79A
:102550002FFCBDE87040FFF713BC00001EB500243F
:102560001449CDE90014124802902346124A134937
:10257000134800F02FF84FF0804012490290CDE947
:1025800000140F480023104A1049283800F022F8A0
:102590000F4881680A4A283A916181680161C168DF
:1025A00041610462C46140F6C411846181621EBD50
:1025B0009A99593FACC5A73700004844CDCC4C3E52
:1025C0008401002017B7513900001643CDCCCC3E12
:1025D0003800002070B50DF1100C9CE8700080E808
:1025E0007E0000218161C1610162416270BD0021F4
:1025F000C1610162416270472DE9F0410446806982
:1026000001F03CFAE76980460121384601F0DDFA25
:10261000414601F028FA216A00F056FF0646D4E947
:102620000205294600F0C4FF314601F01FF90646B5
:102630002946606801F01AF9414601F017F905468C
:102640003946404601F01AFA216801F00FF929468F
:1026500000F03AFF314600F037FF0146606A00F0B3
:1026600033FF0546616901F0CDF900D26569216942
:10267000284601F0C7F800D22569E069C4F81C803B
:10268000C4E908052846BDE8F08100000A48002199
:102690000268D1630068026A41F211131A4207D13D
:1026A000026A9B101A4203D1426C22F40042426437
:1026B0000248016070470000A000002000000020D8
:1026C000044800210268D1630068416C41F4004174
:1026D00041647047A000002001480068C06A70474C
:1026E000A000002010B5FEF7DFFF0446FEF7D6FF7E
:1026F000844201D1204610BD600010BD70B590B07D
:102700001C216846FDF7A5FD3D48816941F4006143
:1027100081618169002401F4006109940791816954
:1027200041F00401816180694FF4806600F004008B
:102730000B900220CDE9076003200A9007A93148D9
:10274000FEF726FDFFF7CEFF2F49B0FBF1F0022880
:1027500000D202202E4D2D49401EC5E90014C5E9C6
:10276000024080202C61C5E905402846FFF7A2FA07
:1027700008B1FEF7BFF96020CDE9000402940822F9
:10278000694623480494FFF72FFA08B1FEF7B2F91F
:10279000202107A8FDF75DFD4FF40060CDE9086436
:1027A000079080000A94CDE90B4007A918480E94C1
:1027B000FFF756F908B1FEF79DF92868016A41F262
:1027C0001112114207D1016A9210114203D1416CDA
:1027D00021F400414164002201211920FEF720FE6E
:1027E0001920FEF710FE2868016841F00101016020
:1027F0002868C16841F00101C16010B070BD0000DF
:102800000010024000080140A0860100002C014099
:10281000A000002070B504460E4814F1FF4F01D30C
:10282000002402E0844200DD0446FFF755FF451C0A
:10283000284600F0D3FF214601F018F800F096FF7B
:10284000A84200D9284604490968C86303480460BF
:1028500070BD00009A99593FA000002000000020A0
:10286000704700002DE9F047074636480026364CF1
:10287000994690468A464FF6FF75874205DAE0880A
:10288000A8420BD2401CE08008E03048874205DDBA
:10289000E680207800F0FD00207005E0E088322816
:1028A00002D3022000F004FE2948874205DD20897A
:1028B000A8420BD2401C208108E02648874205DA56
:1028C0002681207800F0FB00207005E02089142884
:1028D00002D3042000F0ECFD1F49484600F0C6FF7B
:1028E0001E4A0146904200DD1146504601F08AF82A
:1028F00013D26089A84201D2401C608180B20328B3
:1029000002D3082000F0D4FD1549884507DDA089D1
:10291000A8420ED2401CA0810BE06681F4E7114969
:10292000884506DAA681207800F0EF002070BDE827
:10293000F087A0896428FAD3BDE8F047102000F0A2
:10294000B7BD000000005041640000200000584165
:102950000000D4410000D041CDCC8C3F000030417C
:102960000000AA42000096420348002101708181C4
:1029700041810181C1807047640000200D480078CA
:1029800018B1C10703D00CA070470DA07047C10655
:1029900001D50DA07047010701D50DA07047410773
:1029A00001D50DA07047800701D50DA070470EA07E
:1029B00070470000640000204F43502020000000BA
:1029C0004F4B2020200000004F54502020000000DA
:1029D0004F564F55540000004F56494E20000000FE
:1029E0005556494E200000004641554C5400000009
:1029F00001480069704700006400002070B50A4C6F
:102A0000002525704FF080406061084820616069B2
:102A100000F030FC6080206900F02CFCA080A581D3
:102A200065812581E58070BD64000020CDCC4C40DF
:102A3000064910B5884202DB8907884200DD084656
:102A4000034C606100F016FC608010BDCDCCCC3D25
:102A50006400002010B54FF080420749904201DA2F
:102A6000104602E0884200DD0846044C206100F078
:102A700001FCA08010BD0000666666406400002076
:102A800010B5FDF751FD0F494FF07E54884202D832
:102A90000D49884201DC204610BD0C4A904202DB01
:102AA0004FF07C5010BD00F0E9FF4FF0FF3101F016
:102AB0008CF8074900F07CFD2146BDE8104000F08D
:102AC000D2BF0000000048C200008C420000AA42B1
:102AD0000000704100F0ECBC7047000070B5104E73
:102AE00005460024280601D5012200E000228021AD
:102AF0003046FEF742FCFFF777F9012240213046CD
:102B0000FEF73BFCFFF770F9002240213046FEF74C
:102B100034FC6806641C050EE4B2082CE2D370BDD8
:102B2000000C014010B504463821FDF792FB0C481B
:102B300020600220A0800B48A0604002E0600A48AC
:102B40002061002020750949A1610949C4E90710E5
:102B5000084961620849C4E90A102063606310BD36
:102B6000314342440000A040CDCC4C40CDCCCC3EC3
:102B700000001643CDCC4C3E0000484410B58EB04A
:102B80000446104938226846FDF731FB0E4900988B
:102B9000884209D1BDF80400022805D1684600F03A
:102BA0007BFC0D99884205D02046FFF7BBFF012032
:102BB0000EB010BD382269462046FDF718FB0020F4
:102BC000F6E7000000FC00083143424400B58FB036
:102BD0006846FFF7D3FF0298FDF722FF0398FDF741
:102BE000FBFE0498FFF736FF9DF81400FDF70AFF7F
:102BF00006AB93E80700FDF70DFF09AB93E807006C
:102C0000FDF7FAFE04480C99016011F1FF4F01D362
:102C1000002101600FB000BD8000002070B5054CA0
:102C20000546216800F0EEFE03D20348854200DA33
:102C3000256070BD8000002000004843F0B5A5B0BD
:102C40000146274E0E27382201A8FDF7D0FA01A829
:102C500000F022FC0E90382201A90FA8FDF7C7FA58
:102C600000200FAC56F8201054F8202091420DD0CF
:102C7000FEF77AFA0020009020900120CDE9226032
:102C8000694620A8FEF7D2F930B908E0401CB842E6
:102C9000E8D3002025B0F0BDFEF71CFA1AE00025AD
:102CA00006EB850154F8252000230220FEF71CFACC
:102CB0000028F1D16D1CBD42F2D3FEF70BFA094991
:102CC000002000BF01EB800254F82030D2F8002C25
:102CD0009A4201D00120DDE7401CB842F2D3D8E788
:102CE00000FC000800F0000800B58FB0FDF7DAFD29
:102CF00010B102200FB000BD38216846FDF7A9FAD7
:102D0000124800900220ADF80400FDF7C5FD0290C6
:102D1000FDF798FD0390FFF76BFE0490FDF7AAFD09
:102D20008DF8140006A807A908AAFDF7A9FD09A8AF
:102D30000AA90BAAFDF78CFD054800680C9000203D
:102D40000D906846FFF77AFFD4E700003143424414
:102D500080000020FEF71CBB70B594B028216846A7
:102D6000FDF777FA14210AA8FDF773FA002401266B
:102D70000F9410943004CDE90060119412940294E1
:102D800002250496CDE907504FF4E01009906846FB
:102D9000FEF7C0FC60B104964FF46010CDE9084026
:102DA000CDE900546846FEF7B5FC08B172B6FEE7FF
:102DB0000F20CDE90A054FF48060CDE90C400221D7
:102DC0000AA80E94FEF7D4FB08B172B6FEE74FF4E2
:102DD000004011900F950FA8FEF754FB002801D07A
:102DE00072B6FEE714B070BD704700000148FEF7F0
:102DF00062BE0000A0000020F0B50268194B1A4C1A
:102E00001A4D4FF08047984205D0B84203D0A042F7
:102E100001D0A84203D122F070064A68324398429A
:102E200005D0B84203D0A04201D0A84203D122F479
:102E30004074CA6822434C6922F080022243026037
:102E40008A68C2620A688262984201D10969016394
:102E5000012141610169C90703D0016921F0010124
:102E60000161F0BD002C014000040040000800405A
:102E700030B5036A026A22F0010202624268846984
:102E800024F073050C682C4323F002058B682B4358
:102E90000A4DA8420BD123F00805CB6822F44072FA
:102EA0002B434D6923F0040315438A692A4342608A
:102EB000846149684163036230BD0000002C014019
:102EC00030B5026A036A23F0100303624368846921
:102ED0000D6824F4E64444EA05248D6822F02002BB
:102EE00042EA05120B4DA8420ED1CD6822F08002B5
:102EF00042EA05124D6923F4406343EA85038D6974
:102F000022F0400243EA850343608461496881639B
:102F1000026230BD002C014030B5036A026A22F41F
:102F2000807202624268C46923F4007324F073055E
:102F30000C682C438D6843EA05230C4DA8420ED142
:102F4000CD6823F4006343EA05234D6922F440521F
:102F500042EA05128D6923F4806342EA0512426059
:102F6000C4614968C163036230BD0000002C0140A8
:102F700030B5046A026A22F4805202624268C36970
:102F80000D6823F4E64343EA05238D6824F40054D6
:102F900044EA0534064DA84204D14D6922F480422A
:102FA00042EA85124260C36149680164046230BD2F
:102FB000002C014038B50446FFF742F8012000908C
:102FC0001023224618210020FFF709FABDE83840F7
:102FD000FFF728B938B5FFF781F80020FFF746F86A
:102FE0000020FFF74FF8FFF72BF8012400211023F2
:102FF00010A208460094FFF7F2F90C2311A2142145
:1030000000200094FFF7EBF90C2312A224210020EA
:103010000094FFF7E4F9082312A234210020009461
:10302000FFF7DDF9FFF7FEF8BDE838404FF4167002
:10303000FDF7EABF4449474954414C204255434BB0
:103040000000000031322D323556202D3E20352D26
:10305000313056004442432D322020463130334334
:1030600038000000493243205042362F504237008A
:10307000FEB5FEF787F9624D6968411AC8297DD30C
:103080006860FDF7F1FBA968884204D0FDF7ECFB0E
:10309000A860052002E0288808B1401E2880FEF7BD
:1030A000CFFF01240021102356A208460094FFF709
:1030B00096F9FDF7F1FB022710260097CDE9016490
:1030C0000246012300212020FFF7A8F910234EA279
:1030D000002140200094FFF782F94C48007828B185
:1030E000FFF74CFC10230246009407E0FDF7C2FBFB
:1030F00001284FF01003009474D045A20021502005
:10310000FFF76DF9102343A2194600200094FFF742
:1031100066F9FDF715FA0097CDE90164024602232E
:1031200010212020FFF77AF9102337A219464820F2
:103130000094FFF754F9102337A2202100200094B7
:10314000FFF74DF9FDF7E4F90097CDE90164024678
:10315000202102230846FFF761F910232FA2202126
:1031600040200094FFF73BF9288830B110232CA2AF
:10317000202158200094FFF732F900E03FE01023AF
:1031800028A2302100200094FFF729F9FDF7D2F999
:10319000CDE9004602460223302120200294FFF7A9
:1031A0003DF9102318A2302140200094FFF717F9B1
:1031B000FDF7BAF91C49884216D24FF07C5100F055
:1031C00083F900F0D3FACDE90064024602233021EE
:1031D0005820FFF7CDF81023302114A2702000945E
:1031E00007E0FFE712A289E7102312A2302158203E
:1031F0000094FFF7F4F8BDE8FE40FFF713B8FEBDFA
:103200008400002053455400560000006400002054
:10321000435600004F555400494F00004100000044
:103220004C4D5400494E0000000048C243000000CD
:10323000434300002D2D4300FEE70907090E002837
:1032400004DB00F1E02080F80014704700F00F006C
:1032500000F1E02080F8141D704700214FF07E50EF
:1032600000F0A6B9012100F0B0BC0021084600F032
:103270009FB9000010B50D4900F0F8FA0C4900F0B4
:1032800097F90446FDF762F900F0A8FA214600F02C
:103290001BF9084910F1FF4F01D3002002E08842DA
:1032A00000DD084600F062FA80B210BD7CF2F03E0C
:1032B0003333533A00F07F452DE9F0410026A0F565
:1032C0000001B1F1FE4F7DD200F500226FF07E01CA
:1032D00001EBE251C2F3025477184FF07E52A0EB9B
:1032E000C15602EB045557EA040047D02946304640
:1032F00000F0EAF880462946304600F0BFFB414620
:1033000000F056F90546014600F0B0FA80464549FE
:1033100000F0ACFA444900F0D7F80646414628468A
:1033200000F0A4FA314600F0A1FA0646384600F053
:103330003DFA07463D4900F099FA3D49794451F874
:10334000241000F0C1F8314600F0BEF80646012115
:10335000284600F03AFC314600F0B6F805463846FB
:10336000344900F083FA3449794451F8241000F0CC
:10337000ABF82946BDE8F04100F0A6B84FF07E5109
:10338000304600F07BFB05462C4900F06FFA2C49D3
:1033900000F09AF8294600F069FA2A4900F094F8FA
:1033A000294600F063FA6FF0824100F08DF8044680
:1033B0002946084600F05AFA214600F057FA01461D
:1033C000284600E003E0BDE8F04100F07DB84FF092
:1033D0007F42B2EB400F03D2BDE8F041FFF742BF9E
:1033E000B0F1FF4F08BFBDE8F081B0F1004F06D942
:1033F0000120FCF75DFFBDE8F041FFF736BF30F07C
:10340000004105D06FF01606172100F0DEFB5BE7E8
:103410000220FCF74DFFFFF720FF80F00040BDE8E1
:10342000F081000066F1CC3EAAAA2A3FF4FD0538DF
:10343000E42900000070313F9829000021ED423E50
:103440000A1180BEC1ABAA3E0024FDF7A9FFFFF719
:1034500083FCFFF753F9FDF77FF8FFF77FF8FFF7DD
:10346000CDFAFFF7B3FBFEF7C5FCFFF7B3FDFDF7A1
:10347000B1F900BFFEF7EEFCFDF784FFA04208D0D3
:103480000446FDF7F7F8FDF7DDFAFDF74DF8FFF715
:10349000C5FBFFF7EDFDEDE7024600204FEA000116
:1034A00052F82130491C58400D29F9D370470000CB
:1034B00004490A78024204D10A7802430A70FDF7EF
:1034C00089B970476400002090EA010F48BF81F07D
:1034D000004100F1DA82421A3CBF801A89184FEA93
:1034E000D0524FF07F4C1CEA410FA2EBD15318BFD2
:1034F0009CEA026F00F03B804FF0004C4CEA002049
:103500004CEA012121FA03FC10EB0C0C1ED202F153
:10351000FF325FEA1C2040EBC25038BF70471CF0FE
:103520007F0F4FEA400C18BFBCF17F4F38BF704788
:10353000C3F12003994008BF20F00100BCF17F4F88
:1035400038BF7047A0F1C04000F057BA4FEA3C00C6
:10355000000A40EBC25028BF1CF0FF0F4FEA400C9E
:10356000E6D018BFBCF17F4F38BF7047EAE79CEA4E
:10357000026F05D010EA5C0F08BF00F000407047F2
:1035800010B500F0F4F900BF64FBBE3E014800F046
:10359000EABA00BF0000C07F401058BFC0F14040F1
:1035A000491058BFC1F140418142EFF3008070479C
:1035B0004FF47F0C1CEAD0121EBF1CEAD11392EA12
:1035C0000C0F93EA0C0F00F0858090EA010F48BFC2
:1035D00042F4807240F4000C41F400002CF07F4172
:1035E00020F07F4000B58142A2EB03020FF2081CDD
:1035F000ACEB504EC0F100009EF800E04FEA4E0EDA
:1036000000FB0EFC38BF49004FEA2C1C02F5FA0201
:103610000CFB0EF34FEACE1E4FEA112C4FEAC121EC
:103620000EEB635E42EB22420EFB0CFC4FEA1C5396
:1036300000FB03114FEA112C4FEA01310EFB0CFC89
:103640004FEADC4C00FB0C11C14228BF09184CEBBF
:1036500003335DF804EB10EB410143EBC250B2F5CC
:103660007C0F38BF704729D512F0F00F1CBF00F156
:10367000C04000F0004070470081828384858687C7
:1036800088898B8C8D8E8F919293959697999A9C21
:103690009D9FA0A2A3A5A7A8AAACAEB0B2B3B5B790
:1036A000B9BCBEC0C2C5C7C9CCCED1D4D7D9DCDF66
:1036B000E2E6E9ECF0F3F7FAFE0000004FEA400C16
:1036C0000CF1807CBCF17E4F28BF7047B0F1C04048
:1036D00000F093B990EA010F0CEAD11348BF42F40D
:1036E0008072624538BF634507D213F47F0F16D04E
:1036F00080EA010000F00040704710B500F037F993
:10370000097EFC3E00F005B880EA010000F00040B0
:10371000704780EA010000F0004000F06EB912F43A
:103720007F0F04BF0248704780EA010000F065B9CE
:103730000000C07F41000B0ED3F19E0208D950F467
:1037400000034FEA032323FA02F048BF40427047C8
:1037500010B500F00CF900BF49922480002070479A
:103760006FF0004282EA200070470000C10DD1F1E5
:103770009E0206DB4FEA002343F0004323FA02F0E7
:103780007047004207D54FEA4001B1F1FE4F02D227
:103790004FF00000704710B500F0E9F8499224801E
:1037A000002070476FEA20007047000010F00041D1
:1037B00048BF4042B0FA80F310FA03F2C3F19D0310
:1037C0000BD051EAC35101EB1220530638BF7047AA
:1037D00000F1010008BF20F001007047B0FA80F34B
:1037E00010FA03F2C3F19D030AD0D90501EB1220B0
:1037F000530638BF704700F1010008BF20F00100F8
:103800007047000050EA010C00F113801CF5000F16
:1038100058BFBCF5000F01D48842704707D710F598
:10382000000F58BF11F5000F15D488427047894228
:1038300070471CF5000F04D5BCF5000FF7D5814289
:1038400070474FF0807C1CEB400F38BF1CEB410FE2
:1038500001D28142704710B500F089F892244900E6
:103860004FF000504FF08051FFF796BE4FF47F0CA1
:103870001CEAD0121EBF1CEAD11392EA0C0F93EA85
:103880000C0F00F0478090EA010F48BF42F48072AD
:103890004FF0004C4CEA00204CEA012102EB0302FD
:1038A000A0FB0113A2F50002002918BF43F0010399
:1038B0005B0028BF4FEA330342EB22425FEA132C3E
:1038C0004CEBC2502EBFBCEB436FB2F57C0F704780
:1038D0004FEA036CBCF1004F08BF20F00100B2F5C5
:1038E0007C0F38BF70470BD582F0FF0212F5803F86
:1038F000C8BF704700F1C040D8BF00F0004070471B
:1039000000F5000C5FEA4C0C48BF7047B0F1C040B6
:1039100000F073B890EA010F0CEAD11348BF42F4EB
:103920008072624538BF634504D280EA010000F02E
:103930000040704710B500F01AF800BF8900013E42
:1039400000F007B800F009B85FEA410C5FEA1C6CB0
:1039500008D080EA010000F050B85FEA400C5FEA4E
:103960001C6CF6D14FF00040A0F5800070470EF1BE
:10397000020E2EF0030E5EF8044B244204D44FEAEC
:103980004102B2F17F4F11D84FEA4003B3F17F4FAC
:103990000CD80ED14FEAD07CB2F17F4F0CEB4C0C1F
:1039A0000CF1020C08BF4CEBD17C04E04FF0080C8A
:1039B00001E04FEAD17C0CEB4C0324FA03F404F051
:1039C0000704B4F1040C06D20EEB840CBDE81040E1
:1039D0004CF0010C6047DFE80CF0070802024FF0E2
:1039E0000040A0F5800010BD0846420018BFD2F18B
:1039F000807288BF00F0004010BDFF2141EAD05026
:103A0000C005704751EA000C00F113801CF5000F4F
:103A100058BFBCF5000F01D48142704707D711F59C
:103A2000000F58BF10F5000F15D48142704789422E
:103A300070471CF5000F04D5BCF5000FF7D5884280
:103A400070474FF0807C1CEB410F38BF1CEB400FE0
:103A500001D28842704780EA010081EA000180EAD1
:103A60000100FFF7F8BE80F0004090EA010F7FF5FB
:103A700032AD81F0004100F008B8000090EA010F7B
:103A800048BF81F000413FF526AD421A04D882F0CC
:103A90000042A0EB020011444FEAD0524FF07F4C9D
:103AA0001CEA410FA2EBD15318BF9CEA026F4AD027
:103AB0004FF0004C4CEA00204CEA012121FA03FCB3
:103AC000B0EB0C0C0FD412F0FE0F36D05FEA4C00B6
:103AD0001DD5001240EBC25038BF70471CF03F0F9D
:103AE00018BF70470BE0A2F101025FEA1C2040EB17
:103AF000C25038BF70471CF07F0F18BF7047C3F12A
:103B00002003994014BF401E20F001007047800838
:103B10004FEA122308BF7047B0FA80FCA2EB0C02F8
:103B2000CCF1280C60FA0CF093EA122F04BF00EBE2
:103B3000C25070474FEAC3707047130A5FEADC1047
:103B400008BF7047F6E79CEA026F04D010EA5C0FEA
:103B500008BF0020704710B5FFF709FF40DFF63EB1
:103B600081F0004070470CF00F03092B08BF0820BC
:103B700000F051800A2B0BD0082B18BF704708BFEC
:103B80001CF0400F0AD04FF000004FF000017047CA
:103B90001CF0400F18BF4FF0004070471CF0100F92
:103BA00008D020F0704300F07F4242EAD3014FEA90
:103BB0004370704700F0604021F07F4242EA00020B
:103BC00001F07F4040EA727070474FF0FF0212EA46
:103BD000D0521CBF92F0FF038B42C2BFD14200EB18
:103BE000C1507047002A0AD0002B0BD0002900F0EA
:103BF0000040A4BF40F0FE4040F40000704700F0D9
:103C00000040704743024FF00B0C18BF4CF0806C23
:103C10007FF4BCAC70471CF4801F11D01CF4E02F63
:103C200003D06FEACC31490070474FF04050EFF3BA
:103C3000008222F0704242EA000282F3008870475C
:103C40004FF0000070470000000801400200010032
:103C500000080140040001000008014008000100C4
:103C600000080140010001000102020304050607EB
:103C700008090A0B0C0D0E0F1010000000000000C8
:103C80000000010203040607080900000000010209
:103C900003040000000000000000002F00000000EE
:103CA0000700070000147F147F1400242A7F2A12C3
:103CB00000626408132300364955225000000503B2
:103CC000000000001C224100000041221C000014E2
:103CD000083E08140008083E0808000000A0600024
:103CE00000080808080800006060000000201008B4
:103CF0000402003E5149453E0000427F4000004220
:103D000061514946002141454B31001814127F1082
:103D1000002745454539003C4A49493000017109B1
:103D2000050300364949493600064949291E000065
:103D3000363600000000563600000008142241000C
:103D4000001414141414000041221408000201513C
:103D5000090600324959513E007C1211127C007F45
:103D600049494936003E41414122007F4141221CE0
:103D7000007F49494941007F09090901003E414945
:103D8000497A007F0808087F0000417F4100002039
:103D900040413F01007F08142241007F40404040E5
:103DA000007F020C027F007F0408107F003E41412B
:103DB000413E007F09090906003E4151215E007F16
:103DC000091929460046494949310001017F01018D
:103DD000003F4040403F001F2040201F003F403830
:103DE000403F00631408146300070870080700616F
:103DF0005149454300007F41410000552A552A554D
:103E0000000041417F0000040201020400404040E4
:103E10004040000001020400002054545478007F08
:103E20004844443800384444442000384444487FDF
:103E300000385454541800087E0901020018A4A444
:103E4000A47C007F080404780000447D400000400A
:103E500080847D00007F102844000000417F4000E6
:103E6000007C04180478007C08040478003844447A
:103E7000443800FC242424180018242418FC007C56
:103E80000804040800485454542000043F444020CF
:103E9000003C4040207C001C2040201C003C403066
:103EA000403C004428102844001CA0A0A07C0044F2
:103EB00064544C4414141414141400000000000042
:103EC0000000000000000000FC00000000000200F4
:103ED0000000000C020C020000000000000090D066
:103EE000BCD0BC900003000300001824FE448C00EA
:103EF0000302070201001824D8B04C80000300011F
:103F00000201C038E438E0000102020102020806A2
:103F100000000000000000000000000000F80402A3
:103F2000000000010204000204F800000004020185
:103F300000009060F8609000000001000000202068
:103F4000FC20200000000100000000000000000034
:103F500008060000000020202020200000000000B3
:103F600000000000000000000002000000000080CF
:103F7000601C0200040300000000F8040404F800C0
:103F80000102020201000008FC000000000203021E
:103F900000001884442418000302020202000804EE
:103FA0002424D80001020202010040B088FC8000F5
:103FB0000000000302003C242424C4000102020289
:103FC0000100F824242CC0000102020201000C04AC
:103FD000E41C0400000003000000D8242424D800BE
:103FE00001020202010038444444F80000030202C6
:103FF00001000000100000000000020000000000AE
:10400000200000000000060000000020508804028C
:1040100000000000010290909090900000000000CD
:104020000000000204885020000201000000180473
:10403000C4241800000002000000F804E494F80012
:1040400001020202020000E09CF080000203000076
:10405000030204FC2424D800020302020100F80435
:1040600004040C0001020202010004FC0404F80034
:1040700002030202010004FC24740C000203020289
:10408000030004FC24740C00020302000000F0088A
:104090000444CC4000010202010004FC2020FC0486
:1040A0000203000003020404FC04040002020302F1
:1040B0000200000404FC040406040403000004FCE1
:1040C00024D00C0402030200030204FC04000000DC
:1040D000020302020203FC3CC03CFC00030003009C
:1040E000030004FC30C4FC04020302000300F804D3
:1040F0000404F80001020202010004FC2424180058
:10410000020302000000F8848404F80001020207A0
:10411000050004FC24649800020302000302182432
:1041200024448C000302020201000C04FC040C0075
:1041300000020302000004FC0000FC040001020273
:104140000100047C80E01C040000030000001CE06F
:104150003CE01C00000300030000049C609C040081
:10416000020300030200041CE01C0400000203021E
:1041700000000C84641C040002030202030000001F
:10418000FE020200000007040400000E30C0000020
:10419000000000010200000202FE0000000404070B
:1041A0000000000402040000000000000000000005
:1041B00000000000080808080808000002000000CD
:1041C0000000000000000040A0A0C00000010202AA
:1041D000030204FC2020C00000030202010000C012
:1041E0002020600000010202020000C02024FC0028
:1041F00000010202030200C0A0A0C00000010202F0
:1042000002000020F82424040002030202000040FF
:10421000A0A0602000070A0A0A0404FC2020C000B5
:104220000203020003020020E40000000002030277
:104230000000000020E4000008080807000004FC5B
:1042400080E020200203020003020404FC000000BE
:10425000020203020200E020E020C000030003008D
:10426000030020E02020C00002030200030200C07F
:104270002020C00000010202010020E02020C00038
:10428000080F0A02010000C02020E0000001020A1D
:104290000F0820E040202000020302000000006020
:1042A000A0A020000002020203000020F82000006D
:1042B00000000102020020E00020E00000010202F4
:1042C000030220E0208060200000030100006080E5
:1042D000E080600000030003000020608060200098
:1042E00002030003020020E020806020080807018C
:1042F00000000020A0602000000203020200000075
:1043000020DE0200000000070400000000FF0000A3
:104310000000000F00000002DE2000000004070083
:10432000000002010204040200000000000000007E
:10433000000000000000000000000000000000007D
:1043400000F8000000000000003330000000001002
:104350000C06100C0600000000000000000040C029
:104360007840C0784000043F04043F04040000701B
:1043700088FC08300000001820FF211E0000F00813
:10438000F000E018000000211C031E211E0000F0B8
:104390000888700000001E21232419272110101600
:1043A0000E000000000000000000000000000000FF
:1043B00000E018040200000000071820400000027E
:1043C0000418E000000000402018070000004040F2
:1043D00080F0804040000202010F01020200000054
:1043E00000F0000000000101011F010101000000B8
:1043F00000000000000080B070000000000000001D
:1044000000000000000000010101010101010000A5
:10441000000000000000003030000000000000003C
:10442000000080601804006018060100000000E031
:1044300010080810E000000F102020100F000010DE
:1044400010F8000000000020203F20200000007035
:10445000080808887000003028242221300000302D
:104460000888884830000018202020110E00000025
:10447000C02010F8000000070424243F240000F8A6
:104480000888880808000019212020110E0000E08B
:10449000108888180000000F112020110E0000382D
:1044A0000808C83808000000003F00000000007045
:1044B000880808887000001C222121221C0000E0CE
:1044C00010080810E0000000312222110F00000047
:1044D00000C0C000000000000030300000000000FC
:1044E000008000000000000080600000000000006C
:1044F0008040201008000001020408102000404005
:104500004040404040000404040404040400000847
:1045100010204080000000201008040201000070FC
:1045200048080808F0000000003036010000C030E4
:10453000C828E810E0000718272423140B00000007
:10454000C038E0000000203C23020227382008F891
:10455000888888700000203F202020110E00C03085
:10456000080808083800071820202010080008F85C
:1045700008080810E000203F202020100F0008F855
:104580008888E8081000203F20202320180008F821
:104590008888E8081000203F200003000000C03099
:1045A00008080838000007182020221E020008F81A
:1045B00008000008F808203F210101213F200008E1
:1045C00008F8080800000020203F2020000000001C
:1045D0000808F8080800C08080807F00000008F804
:1045E00088C028180800203F20012638200008F83D
:1045F000080000000000203F20202020300008F8A4
:10460000F800F8F80800203F003F003F200008F8BD
:1046100030C00008F808203F200007183F00E010D5
:1046200008080810E0000F10202020100F0008F8E4
:1046300008080808F000203F210101010000E010F7
:1046400008080810E0000F18242438504F0008F81C
:10465000888888887000203F2000030C302000707C
:104660008808080838000038202121221C0018087A
:1046700008F8080818000000203F2000000008F893
:1046800008000008F808001F202020201F000878DC
:10469000880000C83808000007380E010000F8083C
:1046A00000F80008F800033C0700073C0300081866
:1046B00068808068180820302C03032C30200838CC
:1046C000C800C83808000000203F20000000100883
:1046D0000808C838080020382621202018000000CB
:1046E00000FE020202000000007F40404000000C7B
:1046F00030C000000000000000010638C0000002C9
:104700000202FE000000004040407F000000000068
:10471000040202020400000000000000000000008B
:104720000000000000008080808080808080000287
:104730000204000000000000000000000000000073
:104740008080808000000019242222223F2008F867
:10475000008080000000003F112020110E000000AA
:10476000008080800000000E112020201100000039
:1047700000808088F800000E112020103F200000EB
:10478000808080800000001F2222222213000080EF
:1047900080F0888888180020203F2020000000003A
:1047A000808080808000006B94949493600008F86F
:1047B000008080800000203F210000203F200080FA
:1047C0009898000000000020203F202000000000FA
:1047D00000809898000000C08080807F000008F86A
:1047E000000080808000203F24022D30200000083F
:1047F00008F8000000000020203F202000008080FA
:10480000808080808000203F20003F20003F80800B
:10481000008080800000203F210000203F20000019
:10482000808080800000001F202020201F008080CA
:1048300000808000000080FFA12020110E000000F9
:10484000008080808000000E112020A0FF808080EA
:1048500080008080800020203F2120000100000097
:10486000808080808000003324242424190000806C
:1048700080E0808000000000001F20200000808079
:10488000000000808000001F202020103F2080803A
:1048900080000080808000010E30080601008080CA
:1048A0000080008080800F300C030C300F000080EF
:1048B0008000808080000020312E0E31200080801A
:1048C00080000080808080818E701806010000804A
:1048D0008080808080000021302C22213000000068
:1048E0000000807C020200000000003F4040000009
:1048F0000000FF00000000000000FF0000000002B8
:10490000027C800000000040403F000000000006E4
:104910000101020204040000000000000000000089
:104920000000000000000000000000000000000087
:104930000000000000000000000000000000000077
:1049400000000000000000F0F0F000000000000097
:10495000000000017F010000000000000000001CBA
:104960001C1C0000000000008060301C8C60301CAB
:104970000C0000000000000000000000000000002B
:1049800000000000000000000000000000E0000047
:10499000000000E000000086E69F86868686E69F8F
:1049A000860000011F01010101011F01010000003B
:1049B00080C06020F820E0C00000000003070C1851
:1049C000FF70E18100000000070F10107F100F073B
:1049D00000008060206080000000E02000000F30B8
:1049E00020309F70DC371030C0000000100E030034
:1049F0000718101807000000C02020E0C0000000C9
:104A0000000080E01F38E88703C43C040000070F63
:104A10001810100B070D1010080000808C4C380087
:104A20000000000000000000000000000000000086
:104A30000000000000000000000000000000000076
:104A40000000000080E0300804000000000000FECC
:104A5000FF0100000000000000000000030F18200C
:104A6000400000040830E08000000000000000006A
:104A7000000001FFFE0000000000004020180F03AE
:104A8000000000000000000000000000C000000066
:104A90000000004266663C18FF183C666642000053
:104AA0000000000003000000000000000000000003
:104AB000800000000000001010101010FF101010F7
:104AC00010100000000000000300000000000000C3
:104AD00000000000000000000000000000000000D6
:104AE00000000000000000808C4C38000000000036
:104AF00000000000000000000000000000000010A6
:104B00001010101010101010100000000000000015
:104B10000000000000000000000000000000000095
:104B20000000000000000000000000000000000085
:104B30001C1C1C0000000000000000000000000021
:104B40000000E0380C000000000080701C03000032
:104B500000000060380E01000000000000000000AE
:104B600080C060202060C080000000FEFF010000C7
:104B7000000001FFFE000001070E181010180E07BC
:104B800001000000808080C0E00000000000000004
:104B9000000000FFFF000000000000001010101FC8
:104BA0001F10101000000080402020202060C080D6
:104BB000000000030300804020381F070000001C95
:104BC0001A1918181818181F00000080C02020207B
:104BD00060C080000000000303001010182FE78061
:104BE000000000070F10101010180F070000000041
:104BF00000000000C0E0F000000000C0B088868126
:104C000080FFFF808000000000000010101F1F10B8
:104C100010000000E0606060606060600000000004
:104C20003F1008080818F0E0000000070B101010F3
:104C3000101C0F030000000080C040202020E0C0B6
:104C4000000000FCFF211008080818F0E000000137
:104C5000070C18101010080F03000000C0E060607F
:104C6000606060E06000000003000000E0180700E2
:104C7000000000000000001F1F0000000000008076
:104C8000C0602020202060C080000087EF2C181812
:104C9000303068CF830000070F0810101010180F75
:104CA00007000000C0C020202020C0800000001F9E
:104CB0003F604040402010FFFE0000000C1C101020
:104CC00010080F03000000000000000000000000BA
:104CD000000000000000000E0E0E000000000000AA
:104CE0000000001C1C1C0000000000000000000070
:104CF00000000000000000000000000C0C0000009C
:104D00000000000000000058380000000000000013
:104D100000000000008040201000000010284482A5
:104D20000100000000000000000000000102040873
:104D300010000000000000000000000000000084DF
:104D400084848484848484848400000000000000BF
:104D50000000000000000000102040800000000063
:104D60000000000000000000018244281000000044
:104D70001008040201000000000000C020201010F4
:104D8000101030E0C0000003030000F010080C0712
:104D90000300000000001C1C1C00000000000000BC
:104DA00000C0406020202040C00000FCFF01F00E49
:104DB00003C1FE03807F0001070E081111101109C5
:104DC00004020000000080E0E0000000000000009D
:104DD000807C4340477FF880000010181F100000BF
:104DE0000000131F1C1020E0E02020202060C08065
:104DF000000000FFFF10101010182FE78000101F98
:104E00001F1010101010180F0700000080C0402065
:104E100020202060E00000FCFF01000000000000F6
:104E200001000001070E181010100804030020E014
:104E3000E02020202040C080000000FFFF00000094
:104E4000000001FFFE00101F1F10101018080E07B1
:104E5000010020E0E020202020202060800000FFD2
:104E6000FF101010107C00000000101F1F10101009
:104E700010101018060020E0E020202020206060A4
:104E8000800000FFFF101010107C00000100101FB8
:104E90001F100000000000000000000080C0602023
:104EA000202040E0000000FCFF0100004040C0C1A5
:104EB00040400001070E181010100F0F000020E0F6
:104EC000E0200000000020E0E02000FFFF101010B4
:104ED000101010FFFF00101F1F1000000000101F17
:104EE0001F100000202020E0E02020200000000013
:104EF000000000FFFF000000000000001010101F65
:104F00001F101010000000000000202020E0E02012
:104F1000202000000000000000FFFF0000000060F3
:104F2000E0808080C07F3F00000020E0E0200000A3
:104F300020A06020200000FFFF30187CE3C00000AC
:104F40000000101F1F10000001131F1C181020E08C
:104F5000E020000000000000000000FFFF00000053
:104F6000000000000000101F1F101010101010187B
:104F7000060020E0E0E000000000E0E0E02000FFAC
:104F8000013FFEC0E01E01FFFF00101F1000031FC5
:104F90000300101F1F1020E0E0C0000000000020F0
:104FA000E02000FF0003071C78E08000FF00101FD6
:104FB000100000000000030F1F00000080C06020F0
:104FC0002060C080000000FEFF010000000000FF24
:104FD000FE000001070E181010180C07010020E059
:104FE000E0202020202060C0800000FFFF20202043
:104FF0002020301F0F00101F1F10000000000000B5
:105000000000000080C060202060C080000000FE22
:10501000FF010000000000FFFE000001070E11115B
:10502000133C7C67210020E0E0202020202060C08D
:10503000800000FFFF101030F0D0080F0700101F95
:105040001F10000000030F1C10100080C060202003
:1050500020204040E00000070F0C1818303060E0BE
:105060008100001F0C0810101010180F070080603E
:10507000202020E0E020202060800100000000FFD0
:10508000FF000000000100000000101F1F100000C2
:10509000000020E0E020000000000020E02000FFF1
:1050A000FF00000000000000FF0000070F181010B4
:1050B0001010100807002060E0E02000000020E051
:1050C00060200000077FF88000807C030000000063
:1050D0000000071F1C070000000020E0E02000E0A7
:1050E000E0200020E0200007FFF8E01FFFFCE01FA9
:1050F00000000000031F0300011F03000000002048
:1051000060E0A0000020E0602000000000038F7C31
:10511000F8C6010000000010181E130001171F1828
:1051200010002060E0E02000000020E0602000008F
:1051300001073EF8E0180700000000000010101FF3
:105140001F101000000000806020202020A0E0E060
:10515000200000000000C0F03E0F0300000000101F
:105160001C1F17101010101806000000000000FC93
:105170000404040404000000000000FF000000001C
:10518000000000000000007F404040404000000060
:1051900010E0000000000000000000000000031C00
:1051A00060800000000000000000000000030C70A0
:1051B000800000000404040404FC0000000000005F
:1051C0000000000000FF00000000000040404040E0
:1051D000407F0000000000000010080C040C0810C4
:1051E00000000000000000000000000000000000BF
:1051F00000000000000000000000000000000000AF
:10520000000000000000000000000000000000009E
:10521000000080808080808080808080808000008E
:105220000004040808000000000000000000000066
:10523000000000000000000000000000000000006E
:10524000000000000000000000000000000000005E
:1052500098D844642424FCF80000000F1F18101094
:1052600010081F1F10180020E0F0000000000000D0
:1052700000000000FFFF180804040CF8F000000014
:105280001F0F18101010180F03000000000000007E
:1052900000000000000000E0F8180404043C38009E
:1052A000000000030F0C1010101008060000000092
:1052B000000000000020E0F0000000E0F81C040402
:1052C0000408FFFF000000030F18101010081F0F44
:1052D00008000000000000000000000000000000C6
:1052E000E0F8484444444C7870000000030F0C1868
:1052F0001010100804000000000080C0602020E0B2
:10530000C00000040404FFFF0404040400000000C3
:1053100010101F1F101010000000000000000000FF
:10532000000000000000000070F88C04048CF87489
:10533000040C007076CF8D8D8D89C87870000020A8
:10534000E0F000000000000000000000FFFF080483
:105350000404FCF8000000101F1F100000101F1FA5
:10536000100000000000006060000000000000006D
:10537000040404FCFC000000000000001010101FDA
:105380001F1010100000000000000000006060000E
:10539000000000000000040404FCFC000000000009
:1053A000C0C08080C07F3F0000000020E0F000000F
:1053B0000000000000000000FFFF80C0F41C040497
:1053C000000000101F1F1100031F1C101000000020
:1053D000202020E0F000000000000000000000FF9E
:1053E000FF000000000000001010101F1F10101020
:1053F000000000000000000000000000000004FCAD
:10540000FC0804FCFC0804FCFC00101F1F10001F1B
:105410001F10001F1F10000000000000000000000F
:1054200000000004FCFC08080404FCF80000001064
:105430001F1F100000101F1F1000000000000000C0
:1054400000000000000000E0F0180C04040C18F04C
:10545000E00000030F0C101010100C0F03000000F0
:10546000000000000000000000000004FCFC080434
:1054700004040CF8F0000080FFFF889010101C0F4F
:10548000030000000000000000000000000000E039
:10549000F81C04040408F8FC000000030F181010A6
:1054A0009088FFFF80000000000000000000000066
:1054B0000000040404FCFC100804040C0C00101090
:1054C000101F1F101010000000000000000000005E
:1054D00000000000000000003078CCC48484840CFC
:1054E0001C0000001E1810101011190F06000000FB
:1054F000000000C000000000000000040404FFFFE2
:10550000040404000000000000000F1F1010100C25
:105510000000000000000000000000000000000487
:10552000FCFE00000004FCFE000000000F1F18102D
:1055300010081F0F0800000000000000000000001D
:10554000000000040C3CFCC40000C43C0C0400003F
:105550000000010F1E0E010000000000000000000E
:10556000000000000000043CFCC400E47CFC8480DB
:105570007C040000071F070000071F070000000051
:10558000000000000000000000000004041C7CE497
:10559000C0341C0404000010101C1601131F1C183A
:1055A00010000000000000000000000000000004E7
:1055B0000C3CFCC400C43C0404000000C080C137A3
:1055C0000E010000000000000000000000000000CC
:1055D000000000001C0404C4F47C1C040000000053
:1055E000101C1F17111010180E0000000000000002
:1055F00000F80C04000000000000001028EF00007C
:105600000000000000000000003F604000000000BB
:1056100000000000FF00000000000000000000008B
:10562000FF0000000000000000000000FF0000007C
:1056300000000000040CF800000000000000000062
:105640000000EF28100000000000000040603F0054
:1056500000000000000000180602020408102020CC
:105660003008000000000000000000000000000002
:10567000000000000000000000001088C433809E7D
:10568000909F909E20D817F010000100FF80403EB0
:1056900002023E108867186780001060028C004488
:1056A00064544D46445464C4040004047E018040A4
:1056B0003E0000FE00007E80E000101010FF9020F1
:1056C000984828090E2848A818000242817F004007
:1056D000404242427E4242424000100C0484146424
:1056E0000506F404040404140C00048484444724D0
:1056F000140C070C14244484040002FA8282FE80F5
:105700004020504C434C5020400008184884443FEF
:10571000404458414E6058474000080808F80808BF
:10572000081010FF101010F000001030101F088833
:1057300048300E014080403F000008CC4A49484AAA
:10574000CC18007F88888482E00000FF12125292F9
:105750007F00007E88888482E000040444C44F44B3
:1057600044C424242FB42404040040442424150CED
:1057700004FE040C1524244440000000F8494A4C5F
:1057800048F8484C4A49F800000010101312121251
:1057900012FF12121212131010000000F8888888ED
:1057A00088FF88888888F800000000001F08080823
:1057B000087F888888889F80F0001060028C00FC39
:1057C000011610F2121202FE000004047E0100FF16
:1057D0000011111F1151807F00001060028C00FE2B
:1057E000929292929292FE00000004047E0144483C
:1057F000507F40407F5048444000100C04841464A3
:105800000506F404040404140C00048484444724AE
:10581000140C070C14244484040002FA8282FE80D3
:105820004020504C434C5020400008184884443FCE
:10583000404458414E60584740001088C433809E11
:10584000909F909E20D817F010000100FF80403EEE
:1058500002023E108867186780000000F888888878
:1058600088FF88888888F800000000001F08080862
:10587000087F888888889F80F0001060028C004430
:1058800064544D46445464C4040004047E018040C2
:105890003E0000FE00007E80E0001010D0FF90501F
:1058A00020504C434C5020404000040300FF004176
:1058B0004458414E6058474040001060028C00FE42
:1058C00002F202FE00F800FF000004047E0180479F
:1058D000300F10270047807F00001060028C00000E
:1058E000FE9292929292FE00000004047E01407E9D
:1058F00042427E427E42427E40000000FC2424243C
:10590000FC252624FC242424040040308F80844C71
:1059100055252525554C80808000101010FF9020C3
:10592000984828090E2848A818000242817F0040A4
:10593000404242427E424242400040504E4848FF70
:1059400048484840F80000FF000000003E0202FF07
:1059500012221E000F40807F0000100C048414648B
:105960000506F404040404140C000484844447244D
:10597000140C070C14244484040002FA8282FE8072
:105980004020504C434C5020400008184884443F6D
:10599000404458414E60584740008080C0C0E0A05D
:1059A0009080808080808080800000000101030260
:1059B000040000000000000000000000F888888853
:1059C00088FF88888888F800000000001F08080801
:1059D000087F888888889F80F0001060028C0044CF
:1059E00064544D46445464C4040004047E01804061
:1059F0003E0000FE00007E80E0000000041464040D
:105A00000CB402024233020000004041211109059A
:105A100003FF03050911214140001010D0FF900041
:105A200010919690F09094931000040300FF0001F1
:105A300004040404FF0404040400000000C0808087
:105A40008080808080FC84808080808080C0C000D6
:105A50000000000000FF7F404040404040FF4040C9
:105A60004040404040FF7F00000000000000000078
:105A700000000000007F7000000000000000000037
:105A80000000000000000000000000000000000016
:105A900000FCF80000000000000000000000000012
:105AA000000000000000FFFE0202020202020202E9
:105AB00002FFFF020202020202020202FF030000D2
:105AC0000000000000001F1F040404040404040478
:105AD00004FFFF0404040404040404041F00000081
